:020000040800F2
:100000000050002029120008A9110008AF110008B3
:10001000B5110008BB110008C11100080000000064
:10002000000000000000000000000000C7110008F0
:10003000D311000800000000DF110008EB110008D8
:100040007112000871120008711200087112000884
:100050007112000871120008711200087112000874
:100060007112000871120008711200087112000864
:100070007112000871120008711200087112000854
:100080007112000871120008711200087112000844
:100090007112000871120008711200087112000834
:1000A0007112000871120008711200087112000824
:1000B000F91100087112000871120008711200088D
:1000C0007112000871120008711200087112000804
:1000D00071120008711200087112000871120008F4
:1000E0000D120008711200087112000800000000D3
:1000F0000000000000000000000000000000000000
:0C01000000000000000000005FF808F1A3
:10010C0010B5054C237833B9044B13B10448AFF345
:10011C0000800123237010BD60000020000000004F
:10012C00682B000808B5034B1BB103490348AFF318
:10013C00008008BD0000000064000020682B00084F
:10014C0080B483B000AF7860094A7B6852F82330E2
:10015C00012B06D1064A7B68002142F823100123AB
:10016C0000E0002318460C37BD4680BC704700BF2A
:10017C007C00002080B483B000AF7860044A7B68B8
:10018C00012142F8231000BF0C37BD4680BC7047DC
:10019C007C00002080B582B000AF00237B6063E060
:1001AC00354A7B6852F8232034497B6841F8232078
:1001BC00334A7B6852F823202F497B6841F823206F
:1001CC00304A7B6852F823309BB219462E4801F016
:1001DC003FFB034619462A4A7B6842F82310264AFD
:1001EC007B6852F8232026497B6851F823309A42C9
:1001FC0037D1214A7B6852F8232020497B6851F87B
:10020C0023309A422DD11D4A7B6852F823201F4976
:10021C007B6851F823309A4215D0184A7B6852F803
:10022C0023201A497B6841F82320184A7B6852F82E
:10023C002330002B15D1164B4FF496721A60786848
:10024C00FFF798FF0DE0124B1B68013B104A13603F
:10025C000F4B1B68002B04D10C4A7B68012142F820
:10026C0023107B6801337B607B68032B98DD00BF18
:10027C0000BF0837BD4680BD1000002020000020C4
:10028C000000002040000020000801403000002049
:10029C005000002080B500AFA14B1B68012B40F033
:1002AC006981A04B1B68032B00F29A8001A252F8C3
:1002BC0023F000BFD1020008DF0200084D03000844
:1002CC00B9030008974B01221A60642000F0B4FDBA
:1002DC008DE0954B1B68012B40F0848000F080FB77
:1002EC00924B1B68013B914A1360904B1B68002B8F
:1002FC0006D18F4B1B688D4A13608A4B02221A6001
:10030C000320FFF71DFF0346002B04D000F0E8FB91
:10031C00884B0A221A60874B1B68002B06DD00F005
:10032C00DFFB844B1B68013B824A1360814B1B68CB
:10033C00002B01D100F0E8FB642000F07DFD51E0C2
:10034C00794B1B68012B4FD100F072FB7A4B1B6869
:10035C00013B794A1360784B1B68002B06D1774B15
:10036C001B68754A13606F4B03221A600320FFF75A
:10037C00E7FE0346002B04D000F09EFB6D4B0A22D7
:10038C001A606C4B1B68002B06DD00F095FB694B6B
:10039C001B68013B674A1360664B1B68002B01D13D
:1003AC0000F0B2FB642000F047FD1DE05E4B1B68C3
:1003BC00012B1BD100F028FB614B1B68013B604AF1
:1003CC0013605F4B1B68002B06D15E4B1B685C4AAD
:1003DC001360544B01221A60642000F02DFD05E0DF
:1003EC0000BF04E000BF02E000BF00E000BF564BBE
:1003FC001B68032B5FD801A252F823F019040008E4
:10040C008F040008270400085B0400084E4B0222EE
:10041C001A60642000F024FD54E04C4B1B68012B47
:10042C004BD100F029FB4A4B1B68013B484A136037
:10043C00474B1B68002B06D1404B1B68444A13608A
:10044C00414B03221A60642000F00AFD35E03F4B5B
:10045C001B68012B33D100F01FFB3E4B1B68013B8B
:10046C003C4A13603B4B1B68002B06D1354B1B6879
:10047C00384A1360344B01221A60642000F0F0FCFF
:10048C001DE0324B1B68012B1BD100F0E5FA324BFF
:10049C001B68013B304A13602F4B1B68002B06D1A5
:1004AC00234B1B682C4A1360274B02221A606420D2
:1004BC0000F0D6FC05E000BF04E000BF02E000BF86
:1004CC0000E000BF164B1B68013B032B54D801A264
:1004DC0052F823F0F104000805050008190500087E
:1004EC00690500080020FFF72BFE0346012B45D1C0
:1004FC000B4B02221A6041E00020FFF721FE03465D
:10050C00012B3DD1064B03221A6039E00020FFF786
:10051C0017FE0346012B35D1014B04221A6031E042
:10052C008C00002090000020E0000020C000002083
:10053C00B4000020D8000020C4000020BC00002023
:10054C00C8000020B800002094000020E800002023
:10055C00D0000020D4000020CC0000200020FFF7A9
:10056C00EFFD0346012B02D1084B01221A6000F06B
:10057C007DF908E000BF06E000BF04E000BF02E028
:10058C0000BF00E000BF00BF80BD00BF8C0000209A
:10059C0080B500AF9D4B1B68022B63D19C4B1B6835
:1005AC00002B02D0012B09D012E0994B01221A60CA
:1005BC0000F0F8F90A2000F067FC09E0954B1B6885
:1005CC00012B04D100F0B4F9322000F05DFC00BF27
:1005DC00914B1B68022B31D0022B35DC002B02D047
:1005EC00012B0FD030E00120FFF7AAFD0346012BB1
:1005FC002CD1894B01221A60884B1B680133874A26
:10060C00136023E00120FFF79BFD0346012B0BD168
:10061C00824B1B680133814A1360804B1B68632B30
:10062C0002DD7E4B63221A600220FFF789FD034630
:10063C00012B0DD1784B02221A6009E0734B012279
:10064C001A6000F013F904E000BF02E000BF00E004
:10065C0000BF0020FFF774FD0346012B02D16B4B4A
:10066C0003221A60694B1B68032B63D16C4B1B680C
:10067C00002B02D0012B09D012E000F093F9684B4B
:10068C0001221A600A2000F013FC09E0654B1B687C
:10069C00012B04D100F06CF9322000F009FC00BFF2
:1006AC00614B1B68022B31D0022B35DC002B02D0A6
:1006BC00012B0FD030E00120FFF742FD0346012B48
:1006CC002CD1594B01221A60584B1B680133574AE5
:1006DC00136023E00120FFF733FD0346012B0BD100
:1006EC00524B1B680133514A1360504B1B68622BF1
:1006FC0002DD4E4B63221A600220FFF721FD0346F8
:10070C00012B0DD1484B02221A6009E03F4B01220C
:10071C001A6000F0ABF804E000BF02E000BF00E09C
:10072C0000BF0020FFF70CFD0346012B02D1374B15
:10073C0004221A60354B1B68042B65D13C4B1B689B
:10074C00002B02D0012B09D012E000F02BF9384B12
:10075C0001221A600A2000F0BFFB09E0354B1B6830
:10076C00012B04D100F0F2F8322000F0B5FB00BFF1
:10077C00314B1B68022B31D0022B35DC002B02D005
:10078C00012B0FD030E00120FFF7DAFC0346012BE0
:10079C002CD1294B01221A60284B1B680133274AA4
:1007AC00136023E00120FFF7CBFC0346012B0BD198
:1007BC00224B1B680133214A1360204B1B68622BB0
:1007CC0002DD1E4B63221A600220FFF7B9FC0346C0
:1007DC00012B0DD1184B02221A6009E00B4B0122A0
:1007EC001A6000F043F804E000BF02E000BF00E034
:1007FC0000BF0020FFF7A4FC0346012B04D1034BE0
:10080C0001221A6000F032F800BF80BD8C0000207D
:10081C009C000020F8000020A0000020B400002064
:10082C00A400002008010020A8000020B80000202F
:10083C00AC00002018010020B0000020BC000020FB
:10084C0080B400AF064B05221A60064B02221A60D8
:10085C00054B03221A6000BFBD4680BC704700BF29
:10086C00B4000020B8000020BC00002080B400AF11
:10087C001C4B01221A601C4B00221A601B4B0022DD
:10088C001A601B4B00221A601A4B00221A601A4B7A
:10089C0000221A60194B00221A60194B00221A60B0
:1008AC00184B00221A60184B00221A60174B1B6859
:1008BC00174A1360174B1B68174A1360174B1B68BA
:1008CC00174A1360114B1B68164A1360114B1B68B7
:1008DC00154A1360114B1B68144A136000BFBD46C8
:1008EC0080BC70478C0000209000002094000020F9
:1008FC00980000209C000020A0000020A4000020F4
:10090C00A8000020AC000020B0000020B4000020A3
:10091C00C0000020BC000020C4000020B800002053
:10092C00C8000020CC000020D0000020D400002003
:10093C0080B500AF0821044800F0B9FF102102482F
:10094C0000F0B5FF00BF80BD000C014080B500AFCA
:10095C004FF48061044800F0AAFF2021034800F006
:10096C00A6FF00BF80BD00BF00080140000C014085
:10097C0080B500AF0821094800F099FF1021074805
:10098C0000F095FF4FF48061054800F090FF2021A6
:10099C00024800F08CFF00BF80BD00BF000C01407E
:1009AC000008014080B500AF00224FF480610A4876
:1009BC0000F065FF00220821084800F060FF0022CB
:1009CC002021064800F05BFF00221021034800F0B4
:1009DC0056FF00BF80BD00BF00080140000C014065
:1009EC0080B500AF00224FF48061054800F047FF4E
:1009FC0001220821034800F042FF00BF80BD00BF68
:100A0C0000080140000C014080B500AF01224FF4FA
:100A1C008061054800F033FF01220821034800F0F3
:100A2C002EFF00BF80BD00BF00080140000C01403C
:100A3C0080B500AF01224FF48061054800F01FFF24
:100A4C0000220821034800F01AFF00BF80BD00BF40
:100A5C0000080140000C014080B500AF00222021AD
:100A6C00044800F00CFF01221021024800F007FF9F
:100A7C0000BF80BD000C014080B500AF01222021D9
:100A8C00044800F0FCFE00221021024800F0F7FEA2
:100A9C0000BF80BD000C014080B500AF01222021B9
:100AAC00044800F0ECFE01221021024800F0E7FEA1
:100ABC0000BF80BD000C014080B500AF00224FF498
:100ACC008061054800F0DBFE01224FF48071034881
:100ADC0000F0D5FE00BF80BD000C014000080140B5
:100AEC0080B500AF01224FF48061054800F0C7FECD
:100AFC0000224FF48071034800F0C1FE00BF80BD9E
:100B0C00000C01400008014080B500AF00224FF4FA
:100B1C008061054800F0B3FE00224FF48071034859
:100B2C0000F0ADFE00BF80BD000C0140000801408C
:100B3C0080B500AF00F098FB00F014F800F0CAF894
:100B4C0000F09EF800F050F8054801F055FBFFF757
:100B5C0077FEFFF78BFEFFF79DFBFFF719FDFAE71A
:100B6C002401002080B590B000AF07F118032822B3
:100B7C000021184601F0EAFF3B1D00221A605A6062
:100B8C009A60DA601A610223BB610123BB621023F5
:100B9C00FB6202237B630023BB634FF46013FB6394
:100BAC0007F11803184600F0BDFE0346002B01D0D8
:100BBC0000F03CF90F237B600223BB600023FB6039
:100BCC004FF480633B6100237B613B1D022118467F
:100BDC0001F028F90346002B01D000F027F900BFE3
:100BEC004037BD4680BD000080B586B000AF07F130
:100BFC00080300221A605A609A60DA603B460022B1
:100C0C001A605A601D4B4FF080421A601B4B41F624
:100C1C003F725A60194B00229A60184B0922DA6015
:100C2C00164B00221A61154B00229A61134801F0F1
:100C3C0093FA0346002B01D000F0F8F84FF48053E0
:100C4C00BB6007F1080319460C4801F02FFC034662
:100C5C00002B01D000F0EAF800233B6000237B60FE
:100C6C003B461946054801F001FE0346002B01D016
:100C7C0000F0DCF800BF1837BD4680BD2401002011
:100C8C0080B500AF114B124A1A60104B4FF4E13291
:100C9C005A600E4B00229A600C4B0022DA600B4B10
:100CAC0000221A61094B0C225A61084B00229A61EE
:100CBC00064B0022DA61054801F048FE0346002B82
:100CCC0001D000F0B3F800BF80BD00BF6C01002064
:100CDC000044004080B588B000AF07F1100300223B
:100CEC001A605A609A60DA60454B9B69444A43F03B
:100CFC0010039361424B9B6903F01003FB60FB688C
:100D0C003F4B9B693E4A43F0200393613C4B9B69EC
:100D1C0003F02003BB60BB68394B9B69384A43F036
:100D2C0004039361364B9B6903F004037B607B687F
:100D3C00334B9B69324A43F008039361304B9B69F8
:100D4C0003F008033B603B6800224FF4AC612D4874
:100D5C0000F095FD00224FF487612B4800F08FFDC9
:100D6C004FF400533B61294B7B610023BB6107F1BE
:100D7C0010031946264800F0E7FB13233B610023C0
:100D8C007B610123BB6107F1100319461D4800F07C
:100D9C00DBFB4FF4AC633B6101237B610023BB6144
:100DAC000223FB6107F110031946164800F0CCFB37
:100DBC0001233B6100237B610123BB6107F110031D
:100DCC001946114800F0C0FB4FF487633B610123C7
:100DDC007B610023BB610223FB6107F11003194601
:100DEC00094800F0B1FB00220021282000F075FB1F
:100DFC00282000F08EFB00BF2037BD4680BD00BF11
:100E0C000010024000080140000C014000001110CD
:100E1C000010014080B582B000AF786000F070F82F
:100E2C00FFF7B8F900BF0837BD4680BD80B400AFEE
:100E3C0072B600BFFEE7000080B483B000AF7860EC
:100E4C00054A7B681360054B00221A6000BF0C3703
:100E5C00BD4680BC704700BFDC000020E0000020D5
:100E6C0080B483B000AF7860054A7B681360054B93
:100E7C0000221A6000BF0C37BD4680BC704700BF13
:100E8C00E4000020E800002080B483B000AF78605C
:100E9C00054A7B681360054B00221A6000BF0C37B3
:100EAC00BD4680BC704700BFF4000020F800002055
:100EBC0080B483B000AF7860054A7B681360054B43
:100ECC0000221A6000BF0C37BD4680BC704700BFC3
:100EDC00040100200801002080B483B000AF7860CA
:100EEC00054A7B681360054B00221A6000BF0C3763
:100EFC00BD4680BC704700BF1401002018010020C3
:100F0C0080B400AF494B1B68002B0BDD474B1B68B3
:100F1C00013B464A1360454B1B68002B02DC444BDB
:100F2C0001221A60434B1B68002B0BDD414B1B68E5
:100F3C00013B404A13603F4B1B68002B02DC3E4BCD
:100F4C0001221A603D4B1B68002B0BDD3B4B1B68D1
:100F5C00013B3A4A1360394B1B68002B02DC384BBF
:100F6C0001221A60374B1B68002B0BDD354B1B68BD
:100F7C00013B344A1360334B1B68002B02DC324BB1
:100F8C0001221A60314B1B68002B0BDD2F4B1B68A9
:100F9C00013B2E4A13602D4B1B68002B02DC2C4BA3
:100FAC0001221A602B4B1B68002B0BDD294B1B6895
:100FBC00013B284A1360274B1B68002B02DC264B95
:100FCC0001221A60254B1B68002B0BDD234B1B6881
:100FDC00013B224A1360214B1B68002B02DC204B87
:100FEC0001221A601F4B1B68002B0BDD1D4B1B686D
:100FFC00013B1C4A13601B4B1B68002B02DC1A4B79
:10100C0001221A60194B1B68002B0BDD174B1B6858
:10101C00013B164A1360154B1B68002B02DC144B6A
:10102C0001221A6000BFBD4680BC7047DC00002066
:10103C00E0000020E4000020E8000020EC0000208C
:10104C00F0000020F4000020F8000020FC0000203C
:10105C000001002004010020080100200C010020E8
:10106C001001002014010020180100201C01002098
:10107C002001002080B485B000AF154B9B69144A49
:10108C0043F001039361124B9B6903F00103BB60B6
:10109C00BB680F4BDB690E4A43F08053D3610C4B9A
:1010AC00DB6903F080537B607B680A4B5B68FB60F9
:1010BC00FB6823F0E063FB60FB6843F00073FB60AC
:1010CC00044AFB68536000BF1437BD4680BC7047B0
:1010DC00001002400000014080B584B000AF786081
:1010EC007B681B68B3F1804F13D10C4BDB690B4A47
:1010FC0043F00103D361094BDB6903F00103FB608F
:10110C00FB68002200211C2000F0E7F91C2000F0F5
:10111C0000FA00BF1037BD4680BD00BF0010024072
:10112C0080B588B000AF786007F1100300221A6018
:10113C005A609A60DA607B681B68154A934223D127
:10114C00144BDB69134A43F40033D361114BDB6955
:10115C0003F40033FB60FB680E4B9B690D4A43F0B4
:10116C00040393610B4B9B6903F00403BB60BB68E6
:10117C000C233B6102237B610223FB6107F110030B
:10118C001946054800F0E0F900BF2037BD4680BD88
:10119C0000440040001002400008014080B400AF41
:1011AC00FEE780B400AFFEE780B400AFFEE780B48A
:1011BC0000AFFEE780B400AFFEE780B400AF00BF25
:1011CC00BD4680BC704780B400AF00BFBD4680BC3C
:1011DC00704780B400AF00BFBD4680BC704780B57F
:1011EC0000AF00F087F800BF80BD000080B500AFF5
:1011FC00024801F053F800BF80BD00BF240100205D
:10120C0080B500AF4FF4005000F06AFB00BF80BD0A
:10121C0080B400AF00BFBD4680BC70470C480D4980
:10122C000D4A002302E0D458C4500433C4188C4235
:10123C00F9D30A4A0A4C002301E013600432A2429B
:10124C00FBD3FFF7E5FF01F05DFCFFF771FC704786
:10125C000000002060000020B02B0008600000207F
:10126C00B4010020FEE7000080B500AF084B1B68FE
:10127C00074A43F010031360032000F023F9002009
:10128C0000F008F8FFF7F6FE0023184680BD00BFFB
:10129C000020024080B582B000AF7860124B1A6813
:1012AC00124B1B7819464FF47A73B3FBF1F3B2FB74
:1012BC00F3F3184600F03BF90346002B01D0012351
:1012CC000EE07B680F2B0AD8002279684FF0FF30B4
:1012DC0000F003F9064A7B681360002300E0012349
:1012EC0018460837BD4680BD540000205C00002025
:1012FC005800002080B400AF054B1B781A46054BF4
:10130C001B681344034A136000BFBD4680BC704782
:10131C005C000020B001002080B400AF024B1B68C1
:10132C001846BD4680BC7047B001002080B485B023
:10133C0000AF78607B6803F00703FB600C4BDB6845
:10134C00BB60BA684FF6FF031340BB60FB681A0220
:10135C00BB68134343F0BF6343F40033BB60044AE0
:10136C00BB68D36000BF1437BD4680BC704700BF5C
:10137C0000ED00E080B400AF044BDB681B0A03F007
:10138C0007031846BD4680BC704700BF00ED00E067
:10139C0080B483B000AF0346FB7197F90730002B84
:1013AC000BDBFB7903F01F02064997F907305B0949
:1013BC00012000FA02F241F8232000BF0C37BD4691
:1013CC0080BC704700E100E080B483B000AF0346FE
:1013DC003960FB7197F90730002B0ADB3B68DAB2F6
:1013EC000C4997F907301201D2B20B4483F8002351
:1013FC000AE03B68DAB20849FB7903F00F03043BBF
:10140C001201D2B20B441A7600BF0C37BD4680BC19
:10141C00704700BF00E100E000ED00E080B489B04F
:10142C0000AFF860B9607A60FB6803F00703FB61FA
:10143C00FB69C3F10703042B28BF0423BB61FB69C1
:10144C000433062B02D9FB69033B00E000237B61CC
:10145C004FF0FF32BB6902FA03F3DA43BB681A4060
:10146C007B699A404FF0FF317B6901FA03F3D94352
:10147C007B680B40134318462437BD4680BC70472D
:10148C0080B582B000AF78607B68013BB3F1807FA0
:10149C0001D301230FE00A4A7B68013B53600F2103
:1014AC004FF0FF30FFF790FF054B00229A60044B82
:1014BC0007221A60002318460837BD4680BD00BFBE
:1014CC0010E000E080B582B000AF78607868FFF77C
:1014DC002DFF00BF0837BD4680BD80B586B000AF7C
:1014EC000346B9607A60FB7300237B61FFF742FF10
:1014FC0078617A68B9687869FFF790FF024697F9C6
:10150C000F3011461846FFF75FFF00BF1837BD4676
:10151C0080BD80B582B000AF0346FB7197F90730F0
:10152C001846FFF735FF00BF0837BD4680BD80B5B4
:10153C0082B000AF78607868FFF7A2FF03461846C8
:10154C000837BD4680BD000080B48BB000AF78601A
:10155C00396000237B6200233B6269E101227B6AD4
:10156C0002FA03F3FB613B681B68FA691340BB6129
:10157C00BA69FB699A4240F058813B685B689A4AA9
:10158C0093425ED0984A934275D8984A934258D069
:10159C00964A93426FD8964A934252D0944A9342B9
:1015AC0069D8944A93424CD0924A934263D8924A57
:1015BC00934246D0904A93425DD8122B2AD8122BD4
:1015CC0059D801A252F823F04F160008291600082A
:1015DC003B1600087D1600088316000883160008C9
:1015EC00831600088316000883160008831600086B
:1015FC00831600088316000883160008831600085B
:10160C00831600088316000883160008311600089C
:10161C0045160008794A934213D02CE03B68DB68EE
:10162C003B6229E03B68DB6804333B6224E03B68A7
:10163C00DB6808333B621FE03B68DB680C333B62C2
:10164C001AE03B689B68002B02D104233B6213E039
:10165C003B689B68012B05D108233B627B68FA69C8
:10166C001A6109E008233B627B68FA695A6103E05E
:10167C0000233B6200E000BFBB69FF2B01D87B68F5
:10168C0001E07B6804337B61BB69FF2B02D87B6A6A
:10169C009B0002E07B6A083B9B003B617B691A68FC
:1016AC000F213B6901FA03F3DB431A40396A3B69AA
:1016BC0001FA03F31A437B691A603B685B6803F019
:1016CC008053002B00F0B1804D4B9B694C4A43F08A
:1016DC00010393614A4B9B6903F00103BB60BB6838
:1016EC00484A7B6A9B08023352F82330FB607B6AC2
:1016FC0003F003039B000F2202FA03F3DB43FA68A7
:10170C001340FB607B68404A934213D07B683F4A8E
:10171C0093420DD07B683E4A934207D07B683D4A8A
:10172C00934201D1032306E0042304E0022302E0E8
:10173C00012300E000237A6A02F003029200934036
:10174C00FA681343FB602F497B6A9B080233FA68E3
:10175C0041F823203B685B6803F48033002B06D0F0
:10176C002D4B1A682C49BB6913430B6006E02A4BBE
:10177C001A68BB69DB43284913400B603B685B6804
:10178C0003F40033002B06D0234B5A682249BB6963
:10179C0013434B6006E0204B5A68BB69DB431E4980
:1017AC0013404B603B685B6803F48013002B06D03E
:1017BC00194B9A681849BB6913438B6006E0164BAA
:1017CC009A68BB69DB43144913408B603B685B68C8
:1017DC0003F40013002B21D00F4BDA680E49BB69C0
:1017EC001343CB6021E000BF000032100000311029
:1017FC000000221000002110000012100000111037
:10180C00001002400000014000080140000C0140A3
:10181C000010014000140140000401400B4BDA6839
:10182C00BB69DB4309491340CB607B6A01337B62A4
:10183C003B681A687B6A22FA03F3002B7FF48EAEA6
:10184C0000BF00BF2C37BD4680BC70470004014070
:10185C0080B485B000AF78600B467B807B689A685B
:10186C007B881340002B02D00123FB7301E0002383
:10187C00FB73FB7B18461437BD4680BC704780B4A5
:10188C0083B000AF78600B467B8013467B707B780F
:10189C00002B03D07A887B681A6103E07B881A04DA
:1018AC007B681A6100BF0C37BD4680BC704780B4A2
:1018BC0085B000AF78600B467B807B68DB68FB6093
:1018CC007A88FB6813401A04FB68D9437B880B4069
:1018DC001A437B681A6100BF1437BD4680BC704741
:1018EC0080B582B000AF0346FB80084B5A69FB8879
:1018FC001340002B06D0054AFB885361FB88184621
:10190C0000F006F800BF0837BD4680BD000401405A
:10191C0080B483B000AF0346FB8000BF0C37BD46DC
:10192C0080BC704780B586B000AF78607B68002BB8
:10193C0001D101236CE27B681B6803F00103002BCF
:10194C0000F08780924B5B6803F00C03042B0CD0E7
:10195C008F4B5B6803F00C03082B12D18C4B5B682C
:10196C0003F48033B3F5803F0BD1894B1B6803F430
:10197C000033002B6CD07B685B68002B68D1012393
:10198C0046E27B685B68B3F5803F06D1804B1B68F1
:10199C007F4A43F4803313602EE07B685B68002B36
:1019AC000CD17B4B1B687A4A23F480331360784B41
:1019BC001B68774A23F4802313601DE07B685B6807
:1019CC00B3F5A02F0CD1724B1B68714A43F48023E2
:1019DC0013606F4B1B686E4A43F4803313600BE04B
:1019EC006B4B1B686A4A23F480331360684B1B688B
:1019FC00674A23F4802313607B685B68002B13D049
:101A0C00FFF78AFC386108E0FFF786FC02463B6969
:101A1C00D31A642B01D90323FAE15D4B1B6803F441
:101A2C000033002BF0D014E0FFF776FC386108E0AF
:101A3C00FFF772FC02463B69D31A642B01D90323CE
:101A4C00E6E1534B1B6803F40033002BF0D100E0AC
:101A5C0000BF7B681B6803F00203002B63D04C4B68
:101A6C005B6803F00C03002B0BD0494B5B6803F055
:101A7C000C03082B1CD1464B5B6803F48033002B02
:101A8C0016D1434B1B6803F00203002B05D07B6877
:101A9C001B69012B01D00123BAE13D4B1B6823F0DC
:101AAC00F8027B685B69DB00394913430B603AE051
:101ABC007B681B69002B20D0364B01221A60FFF784
:101ACC002BFC386108E0FFF727FC02463B69D31A70
:101ADC00022B01D903239BE12D4B1B6803F002035E
:101AEC00002BF0D02A4B1B6823F0F8027B685B6953
:101AFC00DB00274913430B6015E0264B00221A60CC
:101B0C00FFF70AFC386108E0FFF706FC02463B6968
:101B1C00D31A022B01D903237AE11D4B1B6803F066
:101B2C000203002BF0D17B681B6803F00803002B29
:101B3C003AD07B689B69002B19D0174B01221A6095
:101B4C00FFF7EAFB386108E0FFF7E6FB02463B696A
:101B5C00D31A022B01D903235AE10D4B5B6A03F014
:101B6C000203002BF0D0012000F0D8FA1CE00A4B45
:101B7C0000221A60FFF7D0FB38610FE0FFF7CCFBB7
:101B8C0002463B69D31A022B08D9032340E100BF5C
:101B9C000010024000004242800442429E4B5B6AAD
:101BAC0003F00203002BE9D17B681B6803F00403EC
:101BBC00002B00F0A6800023FB75974BDB6903F02C
:101BCC008053002B0DD1944BDB69934A43F0805327
:101BDC00D361914BDB6903F08053BB60BB6801237D
:101BEC00FB758E4B1B6803F48073002B18D18B4B49
:101BFC001B688A4A43F480731360FFF78DFB3861CE
:101C0C0008E0FFF789FB02463B69D31A642B01D924
:101C1C000323FDE0814B1B6803F48073002BF0D091
:101C2C007B68DB68012B06D17B4B1B6A7A4A43F03D
:101C3C00010313622DE07B68DB68002B0CD1764B23
:101C4C001B6A754A23F001031362734B1B6A724AB9
:101C5C0023F0040313621CE07B68DB68052B0CD1BA
:101C6C006D4B1B6A6C4A43F0040313626A4B1B6A8C
:101C7C00694A43F0010313620BE0674B1B6A664A27
:101C8C0023F001031362644B1B6A634A23F00403C1
:101C9C0013627B68DB68002B15D0FFF73DFB3861C6
:101CAC000AE0FFF739FB02463B69D31A41F288324E
:101CBC00934201D90323ABE0574B1B6A03F0020399
:101CCC00002BEED014E0FFF727FB38610AE0FFF79A
:101CDC0023FB02463B69D31A41F28832934201D965
:101CEC00032395E04C4B1B6A03F00203002BEED14F
:101CFC00FB7D012B05D1484BDB69474A23F0805310
:101D0C00D3617B68DB69002B00F08180424B5B6800
:101D1C0003F00C03082B61D07B68DB69022B46D1E6
:101D2C003F4B00221A60FFF7F7FA386108E0FFF723
:101D3C00F3FA02463B69D31A022B01D9032367E05D
:101D4C00354B1B6803F00073002BF0D17B681B6ACA
:101D5C00B3F5803F08D1304B5B6823F400327B68CD
:101D6C009B682D4913434B602B4B5B6823F4741217
:101D7C007B68196A7B685B6A0B43274913434B608A
:101D8C00274B01221A60FFF7C7FA386108E0FFF70A
:101D9C00C3FA02463B69D31A022B01D9032337E05D
:101DAC001D4B1B6803F00073002BF0D02FE01C4B75
:101DBC0000221A60FFF7B0FA386108E0FFF7ACFABE
:101DCC0002463B69D31A022B01D9032320E0124BA4
:101DDC001B6803F00073002BF0D118E07B68DB6903
:101DEC00012B01D1012313E00B4B5B68FB60FB68FB
:101DFC0003F480327B681B6A9A4206D1FB6803F4B9
:101E0C0070127B685B6A9A4201D0012300E00023C8
:101E1C0018461837BD4680BD0010024000700040C7
:101E2C006000424280B584B000AF786039607B6856
:101E3C00002B01D10123D0E06A4B1B6803F0070390
:101E4C003A689A4210D9674B1B6823F00702654920
:101E5C003B6813430B60634B1B6803F007033A6842
:101E6C009A4201D00123B8E07B681B6803F002039F
:101E7C00002B20D07B681B6803F00403002B05D0DB
:101E8C00594B5B68584A43F4E06353607B681B68AA
:101E9C0003F00803002B05D0534B5B68524A43F404
:101EAC0060535360504B5B6823F0F0027B689B6877
:101EBC004D4913434B607B681B6803F00103002BF7
:101ECC0040D07B685B68012B07D1474B1B6803F440
:101EDC000033002B15D101237FE07B685B68022B5C
:101EEC0007D1414B1B6803F00073002B09D1012370
:101EFC0073E03D4B1B6803F00203002B01D101235F
:101F0C006BE0394B5B6823F003027B685B683649F6
:101F1C0013434B60FFF700FAF8600AE0FFF7FCF997
:101F2C000246FB68D31A41F28832934201D903234B
:101F3C0053E02D4B5B6803F00C027B685B689B00E5
:101F4C009A42EBD1274B1B6803F007033A689A427D
:101F5C0010D2244B1B6823F0070222493B68134321
:101F6C000B60204B1B6803F007033A689A4201D0C0
:101F7C00012332E07B681B6803F00403002B08D0BC
:101F8C00194B5B6823F4E0627B68DB6816491343EA
:101F9C004B607B681B6803F00803002B09D0124BC5
:101FAC005B6823F460527B681B69DB000E491343AA
:101FBC004B6000F021F802460B4B5B681B0903F0E9
:101FCC000F030A49CB5C22FA03F3094A1360094B4D
:101FDC001B681846FFF75EF9002318461037BD46FC
:101FEC0080BD00BF0020024000100240902B000872
:101FFC00540000205800002090B48AB000AF2A4B47
:10200C003C1D0FCB84E80F0040F201233B800023E2
:10201C00FB610023BB6100237B6200237B610023F7
:10202C003B62224B5B68FB61FB6903F00C03042BE6
:10203C0002D0082B03D02DE01D4B3B622DE0FB6939
:10204C009B0C03F00F0307F12802134413F8243CF4
:10205C007B61FB6903F48033002B13D0134B5B685B
:10206C005B0C03F0010307F12802134413F8283C1E
:10207C00BB617B690E4A02FB03F2BB69B2FBF3F353
:10208C007B6204E07B690B4A02FB03F37B627B6A95
:10209C003B6202E0064B3B6200BF3B6A18462837A6
:1020AC00BD4690BC704700BF802B0008001002405A
:1020BC0000127A0000093D0080B400AF024B1B688F
:1020CC001846BD4680BC70475400002080B500AF58
:1020DC00FFF7F2FF0246054B5B681B0A03F0070390
:1020EC000349CB5C22FA03F3184680BD0010024072
:1020FC00A02B000880B500AFFFF7DEFF0246054BB2
:10210C005B68DB0A03F007030349CB5C22FA03F399
:10211C00184680BD00100240A02B000880B485B08A
:10212C0000AF78600A4B1B680A4AA2FB03235B0AC8
:10213C007A6802FB03F3FB6000BFFB685A1EFA606F
:10214C00002BF9D100BF00BF1437BD4680BC7047CF
:10215C0054000020D34D621080B582B000AF78607F
:10216C007B68002B01D1012341E07B6893F83D3063
:10217C00DBB2002B06D17B68002283F83C20786808
:10218C00FEF7AAFF7B68022283F83D207B681A6861
:10219C007B6804331946104600F070FA7B68012204
:1021AC0083F846207B68012283F83E207B6801225D
:1021BC0083F83F207B68012283F840207B68012252
:1021CC0083F841207B68012283F842207B6801223E
:1021DC0083F843207B68012283F844207B6801222A
:1021EC0083F845207B68012283F83D2000231846A4
:1021FC000837BD4680BD000080B485B000AF786064
:10220C007B6893F83D30DBB2012B01D001233AE01F
:10221C007B68022283F83D207B681B68DA687B6848
:10222C001B6842F00102DA607B681B68184A934213
:10223C000ED07B681B68B3F1804F09D07B681B689C
:10224C00144A934204D07B681B68134A934211D101
:10225C007B681B689B6803F00703FB60FB68062B1D
:10226C0010D07B681B681A687B681B6842F00102FF
:10227C001A6007E07B681B681A687B681B6842F071
:10228C0001021A60002318461437BD4680BC704703
:10229C00002C0140000400400008004080B582B0D2
:1022AC0000AF78607B681B681B6903F00203022B8C
:1022BC0022D17B681B68DB6803F00203022B1BD165
:1022CC007B681B686FF002021A617B6801221A7727
:1022DC007B681B689B6903F00303002B03D07868B1
:1022EC0000F0B1F905E0786800F0A4F9786800F026
:1022FC00B3F97B6800221A777B681B681B6903F0B3
:10230C000403042B22D17B681B68DB6803F00403F5
:10231C00042B1BD17B681B686FF004021A617B686D
:10232C0002221A777B681B689B6903F44073002BAD
:10233C0003D0786800F087F905E0786800F07AF946
:10234C00786800F089F97B6800221A777B681B6833
:10235C001B6903F00803082B22D17B681B68DB6820
:10236C0003F00803082B1BD17B681B686FF0080275
:10237C001A617B6804221A777B681B68DB6903F09F
:10238C000303002B03D0786800F05DF905E0786852
:10239C0000F050F9786800F05FF97B6800221A773A
:1023AC007B681B681B6903F01003102B22D17B6820
:1023BC001B68DB6803F01003102B1BD17B681B68B8
:1023CC006FF010021A617B6808221A777B681B6811
:1023DC00DB6903F44073002B03D0786800F033F909
:1023EC0005E0786800F026F9786800F035F97B682C
:1023FC0000221A777B681B681B6903F00103012B11
:10240C000ED17B681B68DB6803F00103012B07D13D
:10241C007B681B686FF001021A617868FEF7FAFCA2
:10242C007B681B681B6903F08003802B0ED17B68D3
:10243C001B68DB6803F08003802B07D17B681B686B
:10244C006FF080021A61786800F077FA7B681B687D
:10245C001B6903F04003402B0ED17B681B68DB68C3
:10246C0003F04003402B07D17B681B686FF04002E0
:10247C001A61786800F0F9F87B681B681B6903F037
:10248C002003202B0ED17B681B68DB6803F0200334
:10249C00202B07D17B681B686FF020021A617868CB
:1024AC0000F042FA00BF0837BD4680BD80B584B04D
:1024BC0000AF786039607B6893F83C30012B01D118
:1024CC000223B3E07B68012283F83C207B68022264
:1024DC0083F83D207B681B689B68FB60FB6823F0DE
:1024EC007703FB60FB6823F47F43FB607B681B680E
:1024FC00FA689A603B681B68B3F5005F3ED0B3F591
:10250C00005F00F28780B3F5805F00F08580B3F543
:10251C00805F7FD8702B1AD0702B7BD8602B50D05B
:10252C00602B77D8502B3CD0502B73D8402B58D0E5
:10253C00402B6FD8302B64D0302B6BD8202B60D035
:10254C00202B67D8002B5CD0102B5AD062E07B6814
:10255C0018683B6899683B685A683B68DB6800F010
:10256C0066F97B681B689B68FB60FB6843F077032C
:10257C00FB607B681B68FA689A604EE07B681868A1
:10258C003B6899683B685A683B68DB6800F04FF918
:10259C007B681B689A687B681B6842F480429A606F
:1025AC003BE07B6818683B6859683B68DB681A46F7
:1025BC0000F0C6F87B681B685021184600F01DF926
:1025CC002BE07B6818683B6859683B68DB681A46E7
:1025DC0000F0E4F87B681B686021184600F00DF9E8
:1025EC001BE07B6818683B6859683B68DB681A46D7
:1025FC0000F0A6F87B681B684021184600F0FDF837
:10260C000BE07B681A683B681B681946104600F0A3
:10261C00F4F802E000BF00E000BF7B68012283F801
:10262C003D207B68002283F83C200023184610379D
:10263C00BD4680BD80B483B000AF786000BF0C375E
:10264C00BD4680BC704780B483B000AF786000BFDB
:10265C000C37BD4680BC704780B483B000AF786047
:10266C0000BF0C37BD4680BC704780B483B000AF50
:10267C00786000BF0C37BD4680BC704780B485B015
:10268C0000AF786039607B681B68FB607B68294A07
:10269C0093420BD07B68B3F1804F07D07B68264AFE
:1026AC00934203D07B68254A934208D1FB6823F000
:1026BC007003FB603B685B68FA681343FB607B68E4
:1026CC001C4A93420BD07B68B3F1804F07D07B68D8
:1026DC00194A934203D07B68184A934208D1FB688D
:1026EC0023F44073FB603B68DB68FA681343FB60C0
:1026FC00FB6823F080023B685B691343FB607B68DB
:10270C00FA681A603B689A687B68DA623B681A68F8
:10271C007B689A627B68074A934203D13B681A69CB
:10272C007B681A637B6801225A6100BF1437BD466F
:10273C0080BC7047002C01400004004000080040A1
:10274C0080B487B000AFF860B9607A60FB681B6A30
:10275C007B61FB681B6A23F00102FB681A62FB6851
:10276C009B693B613B6923F0F0033B617B681B0178
:10277C003A6913433B617B6923F00A037B617A69F5
:10278C00BB6813437B61FB683A699A61FB687A69A1
:10279C001A6200BF1C37BD4680BC704780B487B03E
:1027AC0000AFF860B9607A60FB681B6A23F0100216
:1027BC00FB681A62FB689B697B61FB681B6A3B6167
:1027CC007B6923F470437B617B681B037A69134339
:1027DC007B613B6923F0A0033B61BB681B013A6939
:1027EC0013433B61FB687A699A61FB683A691A6228
:1027FC0000BF1C37BD4680BC704780B485B000AFAD
:10280C00786039607B689B68FB60FB6823F0700321
:10281C00FB603A68FB68134343F00703FB607B687B
:10282C00FA689A6000BF1437BD4680BC704780B40C
:10283C0087B000AFF860B9607A603B60FB689B685A
:10284C007B617B6923F47F437B613B681A027B6865
:10285C001A43BB6813437A6913437B61FB687A693B
:10286C009A6000BF1C37BD4680BC704780B485B0F1
:10287C0000AF786039607B6893F83C30012B01D154
:10288C00022346E07B68012283F83C207B6802220D
:10289C0083F83D207B681B685B68FB607B681B686A
:1028AC009B68BB60FB6823F07003FB603B681B6894
:1028BC00FA681343FB607B681B68FA685A607B6894
:1028CC001B68164A93420ED07B681B68B3F1804F8D
:1028DC0009D07B681B68124A934204D07B681B6842
:1028EC00104A93420CD1BB6823F08003BB603B6859
:1028FC005B68BA681343BB607B681B68BA689A60F4
:10290C007B68012283F83D207B68002283F83C2001
:10291C00002318461437BD4680BC7047002C01407C
:10292C00000400400008004080B483B000AF786021
:10293C0000BF0C37BD4680BC704780B483B000AF7D
:10294C00786000BF0C37BD4680BC704780B582B044
:10295C0000AF78607B68002B01D101233FE07B68DE
:10296C0093F83D30DBB2002B06D17B68002283F854
:10297C003C207868FEF7D4FB7B68242283F83D204A
:10298C007B681B68DA687B681B6822F40052DA608B
:10299C00786800F029F87B681B681A697B681B68EB
:1029AC0022F490421A617B681B685A697B681B6829
:1029BC0022F02A025A617B681B68DA687B681B6804
:1029CC0042F40052DA607B6800221A647B68202291
:1029DC0083F83D207B68202283F83E200023184694
:1029EC000837BD4680BD000080B584B000AF78606C
:1029FC007B681B681B6923F440517B68DA687B6831
:102A0C001B680A431A617B689A687B681B691A43C6
:102A1C007B685B691343BB607B681B68DB6823F4D2
:102A2C00B05323F00C037A681268B9680B43D36077
:102A3C007B681B685B6923F440717B689A697B68CF
:102A4C001B680A435A617B681B682C4A934203D16A
:102A5C00FFF750FBF86002E0FFF738FBF860FA680C
:102A6C0013469B0013449A001A447B685B689B00D6
:102A7C00B2FBF3F3224AA2FB03235B091901FA68A8
:102A8C0013469B0013449A001A447B685B689B00B6
:102A9C00B2FBF3F21A4BA3FB02035B09642000FBAD
:102AAC0003F3D31A1B013233154AA2FB03235B0930
:102ABC0003F0F0031944FA6813469B0013449A0080
:102ACC001A447B685B689B00B2FBF3F20C4BA3FBD4
:102ADC0002035B09642000FB03F3D31A1B0132339E
:102AEC00074AA2FB03235B0903F00F027B681B68F8
:102AFC000A449A6000BF1037BD4680BD00380140C3
:102B0C001F85EB5170B500260C4D0D4C641BA410A9
:102B1C00A64209D100F022F800260A4D0A4C641B8B
:102B2C00A410A64205D170BD55F8043B9847013658
:102B3C00EEE755F8043B98470136F2E7A82B00085E
:102B4C00A82B0008A82B0008AC2B00080346024455
:102B5C00934200D1704703F8011BF9E7F8B500BFA9
:102B6C00F8BC08BC9E467047F8B500BFF8BC08BC62
:042B7C009E467047BA
:102B800002030405060708090A0B0C0D0E0F1010AE
:102B9000000000000000000001020304060708090D
:082BA000000000000102030423
:042BA80031010008EF
:042BAC000D0100080F
:102BB0000100000001000000010000000100000011
:102BC0000100000001000000010000000100000001
:102BD00001000000010000000100000001000000F1
:102BE00001000000010000000100000001000000E1
:102BF00002000000100000000100000001000000C1
:102C00002C0100000024F40010000000010000006E
:0400000508001229B4
:00000001FF
